{
  "contractName": "Powerpool",
  "abi": [
    {
      "constant": true,
      "inputs": [],
      "name": "lowPrice",
      "outputs": [
        {
          "name": "",
          "type": "uint256"
        }
      ],
      "payable": false,
      "stateMutability": "view",
      "type": "function",
      "signature": "0x0a82cc17"
    },
    {
      "constant": true,
      "inputs": [
        {
          "name": "",
          "type": "address"
        }
      ],
      "name": "bills",
      "outputs": [
        {
          "name": "status",
          "type": "string"
        },
        {
          "name": "amount",
          "type": "uint256"
        },
        {
          "name": "carbon",
          "type": "uint256"
        },
        {
          "name": "paid",
          "type": "bool"
        }
      ],
      "payable": false,
      "stateMutability": "view",
      "type": "function",
      "signature": "0x0cfba556"
    },
    {
      "constant": true,
      "inputs": [
        {
          "name": "",
          "type": "address"
        }
      ],
      "name": "txns",
      "outputs": [
        {
          "name": "count",
          "type": "uint256"
        },
        {
          "name": "time",
          "type": "uint256"
        },
        {
          "name": "buy",
          "type": "uint256"
        },
        {
          "name": "sell",
          "type": "uint256"
        },
        {
          "name": "carbon",
          "type": "uint256"
        },
        {
          "name": "paid",
          "type": "bool"
        }
      ],
      "payable": false,
      "stateMutability": "view",
      "type": "function",
      "signature": "0x158559b8"
    },
    {
      "constant": true,
      "inputs": [],
      "name": "billingEndTime",
      "outputs": [
        {
          "name": "",
          "type": "uint256"
        }
      ],
      "payable": false,
      "stateMutability": "view",
      "type": "function",
      "signature": "0x1e6167af"
    },
    {
      "constant": true,
      "inputs": [],
      "name": "highPrice",
      "outputs": [
        {
          "name": "",
          "type": "uint256"
        }
      ],
      "payable": false,
      "stateMutability": "view",
      "type": "function",
      "signature": "0x4aaed8da"
    },
    {
      "constant": true,
      "inputs": [],
      "name": "allcount",
      "outputs": [
        {
          "name": "",
          "type": "uint256"
        }
      ],
      "payable": false,
      "stateMutability": "view",
      "type": "function",
      "signature": "0x55a33024"
    },
    {
      "constant": true,
      "inputs": [],
      "name": "Qbuy",
      "outputs": [
        {
          "name": "",
          "type": "uint256"
        }
      ],
      "payable": false,
      "stateMutability": "view",
      "type": "function",
      "signature": "0x5a66cf2b"
    },
    {
      "constant": true,
      "inputs": [],
      "name": "_sell",
      "outputs": [
        {
          "name": "",
          "type": "uint256"
        }
      ],
      "payable": false,
      "stateMutability": "view",
      "type": "function",
      "signature": "0x5eba7fcc"
    },
    {
      "constant": true,
      "inputs": [
        {
          "name": "",
          "type": "uint256"
        }
      ],
      "name": "all",
      "outputs": [
        {
          "name": "count",
          "type": "uint256"
        },
        {
          "name": "price",
          "type": "uint256"
        },
        {
          "name": "qbuy",
          "type": "uint256"
        },
        {
          "name": "qsell",
          "type": "uint256"
        },
        {
          "name": "carbon",
          "type": "uint256"
        }
      ],
      "payable": false,
      "stateMutability": "view",
      "type": "function",
      "signature": "0x6114730c"
    },
    {
      "constant": true,
      "inputs": [],
      "name": "Qsell",
      "outputs": [
        {
          "name": "",
          "type": "uint256"
        }
      ],
      "payable": false,
      "stateMutability": "view",
      "type": "function",
      "signature": "0x6bd9d5df"
    },
    {
      "constant": true,
      "inputs": [],
      "name": "allcarbon",
      "outputs": [
        {
          "name": "",
          "type": "uint256"
        }
      ],
      "payable": false,
      "stateMutability": "view",
      "type": "function",
      "signature": "0x88e3c1aa"
    },
    {
      "constant": true,
      "inputs": [],
      "name": "_buy",
      "outputs": [
        {
          "name": "",
          "type": "uint256"
        }
      ],
      "payable": false,
      "stateMutability": "view",
      "type": "function",
      "signature": "0x9299f294"
    },
    {
      "constant": true,
      "inputs": [],
      "name": "_carbonPrefix",
      "outputs": [
        {
          "name": "",
          "type": "uint256"
        }
      ],
      "payable": false,
      "stateMutability": "view",
      "type": "function",
      "signature": "0xe78d0597"
    },
    {
      "constant": true,
      "inputs": [],
      "name": "_carbon",
      "outputs": [
        {
          "name": "",
          "type": "uint256"
        }
      ],
      "payable": false,
      "stateMutability": "view",
      "type": "function",
      "signature": "0xfe4fda57"
    },
    {
      "inputs": [],
      "payable": false,
      "stateMutability": "nonpayable",
      "type": "constructor",
      "signature": "constructor"
    },
    {
      "anonymous": false,
      "inputs": [
        {
          "indexed": false,
          "name": "count",
          "type": "uint256"
        },
        {
          "indexed": false,
          "name": "buy",
          "type": "uint256"
        },
        {
          "indexed": false,
          "name": "sell",
          "type": "uint256"
        },
        {
          "indexed": false,
          "name": "carbon",
          "type": "uint256"
        },
        {
          "indexed": false,
          "name": "paid",
          "type": "bool"
        }
      ],
      "name": "Txnrecored",
      "type": "event",
      "signature": "0x5f057ec20d21163364ee2cbb5a496ae1bf2c2a90a74c9e57e39bcaeda3a0af55"
    },
    {
      "anonymous": false,
      "inputs": [
        {
          "indexed": false,
          "name": "count",
          "type": "uint256"
        },
        {
          "indexed": false,
          "name": "quant",
          "type": "uint256"
        },
        {
          "indexed": false,
          "name": "buy",
          "type": "uint256"
        },
        {
          "indexed": false,
          "name": "sell",
          "type": "uint256"
        },
        {
          "indexed": false,
          "name": "carbon",
          "type": "uint256"
        }
      ],
      "name": "All",
      "type": "event",
      "signature": "0x6e5ae1dd4cb49e2bc8318aabfdffeca3591a25783ce1ebc69256b52de25f1d9f"
    },
    {
      "constant": false,
      "inputs": [
        {
          "name": "_user",
          "type": "address"
        },
        {
          "name": "_acQuant",
          "type": "uint256"
        },
        {
          "name": "_clQuant",
          "type": "uint256"
        },
        {
          "name": "_clPrice",
          "type": "uint256"
        },
        {
          "name": "_status",
          "type": "string"
        },
        {
          "name": "_pvQuant",
          "type": "uint256"
        }
      ],
      "name": "setTxn",
      "outputs": [],
      "payable": false,
      "stateMutability": "nonpayable",
      "type": "function",
      "signature": "0xf8283fd2"
    },
    {
      "constant": false,
      "inputs": [
        {
          "name": "_user",
          "type": "address"
        }
      ],
      "name": "getBill",
      "outputs": [
        {
          "name": "",
          "type": "string"
        },
        {
          "name": "",
          "type": "uint256"
        },
        {
          "name": "",
          "type": "uint256"
        },
        {
          "name": "",
          "type": "bool"
        }
      ],
      "payable": false,
      "stateMutability": "nonpayable",
      "type": "function",
      "signature": "0x71fa0a0c"
    },
    {
      "constant": false,
      "inputs": [
        {
          "name": "_user",
          "type": "address"
        },
        {
          "name": "market",
          "type": "address"
        }
      ],
      "name": "payBills",
      "outputs": [],
      "payable": true,
      "stateMutability": "payable",
      "type": "function",
      "signature": "0xadcaa8a4"
    }
  ],
  "bytecode": "0x608060405261017d60005560a8600155610182600255600060075534801561002657600080fd5b5042612710016003556114808061003e6000396000f3fe6080604052600436106100f05763ffffffff7c01000000000000000000000000000000000000000000000000000000006000350416630a82cc1781146100f55780630cfba5561461011c578063158559b8146101e05780631e6167af146102485780634aaed8da1461025d57806355a33024146102725780635a66cf2b146102875780635eba7fcc1461029c5780636114730c146102b15780636bd9d5df1461030657806371fa0a0c1461031b57806388e3c1aa1461034e5780639299f29414610363578063adcaa8a414610378578063e78d0597146103a8578063f8283fd2146103bd578063fe4fda5714610493575b600080fd5b34801561010157600080fd5b5061010a6104a8565b60408051918252519081900360200190f35b34801561012857600080fd5b5061014f6004803603602081101561013f57600080fd5b5035600160a060020a03166104ae565b604051808060200185815260200184815260200183151515158152602001828103825286818151815260200191508051906020019080838360005b838110156101a257818101518382015260200161018a565b50505050905090810190601f1680156101cf5780820380516001836020036101000a031916815260200191505b509550505050505060405180910390f35b3480156101ec57600080fd5b506102136004803603602081101561020357600080fd5b5035600160a060020a0316610566565b6040805196875260208701959095528585019390935260608501919091526080840152151560a0830152519081900360c00190f35b34801561025457600080fd5b5061010a61059e565b34801561026957600080fd5b5061010a6105a4565b34801561027e57600080fd5b5061010a6105aa565b34801561029357600080fd5b5061010a6105b0565b3480156102a857600080fd5b5061010a6105b6565b3480156102bd57600080fd5b506102db600480360360208110156102d457600080fd5b50356105bc565b6040805195865260208601949094528484019290925260608401526080830152519081900360a00190f35b34801561031257600080fd5b5061010a6105eb565b34801561032757600080fd5b5061014f6004803603602081101561033e57600080fd5b5035600160a060020a03166105f1565b34801561035a57600080fd5b5061010a610900565b34801561036f57600080fd5b5061010a610906565b6103a66004803603604081101561038e57600080fd5b50600160a060020a038135811691602001351661090c565b005b3480156103b457600080fd5b5061010a610df3565b3480156103c957600080fd5b506103a6600480360360c08110156103e057600080fd5b600160a060020a038235169160208101359160408201359160608101359181019060a08101608082013564010000000081111561041c57600080fd5b82018360208201111561042e57600080fd5b8035906020019184600183028401116401000000008311171561045057600080fd5b91908080601f0160208091040260200160405190810160405280939291908181526020018383808284376000920191909152509295505091359250610df9915050565b34801561049f57600080fd5b5061010a6113b3565b60015481565b600b6020908152600091825260409182902080548351601f600260001961010060018616150201909316929092049182018490048402810184019094528084529092918391908301828280156105455780601f1061051a57610100808354040283529160200191610545565b820191906000526020600020905b81548152906001019060200180831161052857829003601f168201915b50505050600183015460028401546003909401549293909290915060ff1684565b600d60205260009081526040902080546001820154600283015460038401546004850154600590950154939492939192909160ff1686565b60035481565b60005481565b60075481565b60085481565b60055481565b600c60205260009081526040902080546001820154600283015460038401546004909401549293919290919085565b60095481565b600160a060020a0381166000908152600d60205260408120600301546060919081908190811180159061063e5750600160a060020a0385166000908152600d602052604081206002015410155b15156106ba576040805160e560020a62461bcd02815260206004820152602660248201527f5468652073656c6c206f7220627579207265636f7264732073686f756c64206260448201527f65203e3d20300000000000000000000000000000000000000000000000000000606482015290519081900360840190fd5b600160a060020a0385166000908152600d602052604081206003810154600290910154606091101561074b575050600160a060020a0385166000908152600d602090815260409182902060038082015460029092015484518086019095529084527f4255590000000000000000000000000000000000000000000000000000000000928401929092529003906107d5565b600160a060020a0387166000908152600d60205260409020600281015460039091015411156107d5575050600160a060020a0385166000908152600d602090815260409182902060028101546003909101548351808501909452600484527f53454c4c00000000000000000000000000000000000000000000000000000000928401929092529003905b600160a060020a0387166000908152600b60209081526040909120600181018490558251610805928401906113b9565b50600160a060020a0387166000908152600d602090815260408083206004810154600b845293829020600280820195865560038201805460ff199081168255600590940180549094166001908117909455838301549654905483548651601f96821615610100026000190190911693909304948501879004870283018701909552838252919594919360ff169290918691908301828280156108e85780601f106108bd576101008083540402835291602001916108e8565b820191906000526020600020905b8154815290600101906020018083116108cb57829003601f168201915b50505050509350955095509550955050509193509193565b600a5481565b60045481565b600160a060020a0382166000908152600b602090815260409182902080548351601f60026000196101006001861615020190931692909204918201849004840281018401909452808452606093928301828280156109ab5780601f10610980576101008083540402835291602001916109ab565b820191906000526020600020905b81548152906001019060200180831161098e57829003601f168201915b50505050600160a060020a0385166000908152600b60209081526040808320600190810154600d9093529220549394509210159050610a34576040805160e560020a62461bcd02815260206004820152601c60248201527f5468652074786e7265636f72642073686f756c64206265203e3d203100000000604482015290519081900360640190fd5b6000811015610a8d576040805160e560020a62461bcd02815260206004820152601260248201527f5468652062696c6c2073686f756c64203e300000000000000000000000000000604482015290519081900360640190fd5b600160a060020a0384166000908152600d60205260409020600501805460ff1916600117905560405160200180807f4255590000000000000000000000000000000000000000000000000000000000815250600301905060405160208183030381529060405280519060200120826040516020018082805190602001908083835b60208310610b2d5780518252601f199092019160209182019101610b0e565b6001836020036101000a038019825116818451168082178552505050505050905001915050604051602081830303815290604052805190602001201415610c6557600160a060020a0384163314610bce576040805160e560020a62461bcd02815260206004820152601560248201527f757365722073686f756c642062652073656e6465720000000000000000000000604482015290519081900360640190fd5b34811115610c26576040805160e560020a62461bcd02815260206004820152601a60248201527f616d6f756e742073686f756c64203d3d206d73672e76616c7565000000000000604482015290519081900360640190fd5b6040513490600160a060020a0385169082156108fc029083906000818181858888f19350505050158015610c5e573d6000803e3d6000fd5b5050610d58565b600160a060020a0383163314610cc5576040805160e560020a62461bcd02815260206004820152601760248201527f6d61726b65742073686f756c642062652073656e646572000000000000000000604482015290519081900360640190fd5b34811115610d1d576040805160e560020a62461bcd02815260206004820152601a60248201527f616d6f756e742073686f756c64203d3d206d73672e76616c7565000000000000604482015290519081900360640190fd5b6040513490600160a060020a0386169082156108fc029083906000818181858888f19350505050158015610d55573d6000803e3d6000fd5b50505b600160a060020a0384166000818152600b6020818152604080842060038101805460ff191660019081179091558101859055815180840192839052858152959094529190529151610da992906113b9565b50505050600160a060020a03166000908152600b602090815260408083206002908101849055600d9092528220828155600181018390559081018290556003810182905560040155565b60025481565b600160a060020a0386166000908152600d6020526040902054600311610e69576040805160e560020a62461bcd02815260206004820152601a60248201527f5468652074786e636f756e742073686f756c64206265203c2033000000000000604482015290519081900360640190fd5b60008510158015610e7b575060008410155b8015610e88575060008310155b8015610e95575060008110155b1515610f11576040805160e560020a62461bcd02815260206004820152602481018290527f5f61635175616e74203e3d2030202626205f636c5175616e74203e3d2030202660448201527f26205f636c5072696365203e3d2030202626205f70765175616e74203e3d2030606482015290519081900360840190fd5b600160a060020a0386166000908152600d60209081526040918290208054600101905581517f426964000000000000000000000000000000000000000000000000000000000081830152825180820360030181526023820190935282519282019290922084519092859260439091019182918401908083835b60208310610fa95780518252601f199092019160209182019101610f8a565b6001836020036101000a03801982511681845116808217855250505050505090500191505060405160208183030381529060405280519060200120141561103d578385111561100857838503600054028484020160048190555061100f565b8285026004555b600454600160a060020a0387166000908152600d602052604090206002018054909101905560088054860190555b60405160200180807f4f66666572000000000000000000000000000000000000000000000000000000815250600501905060405160208183030381529060405280519060200120826040516020018082805190602001908083835b602083106110b75780518252601f199092019160209182019101611098565b6001836020036101000a03801982511681845116808217855250505050505090500191505060405160208183030381529060405280519060200120141561114b578385111561111657838503600154028484020160058190555061111d565b8285026005555b600554600160a060020a0387166000908152600d602052604090206003018054909101905560098054860190555b60405160200180807f4f66666572000000000000000000000000000000000000000000000000000000815250600501905060405160208183030381529060405280519060200120826040516020018082805190602001908083835b602083106111c55780518252601f1990920191602091820191016111a6565b6001836020036101000a038019825116818451168082178552505050505050905001915050604051602081830303815290604052805190602001201415611213576002548102600655611219565b60006006555b60068054600160a060020a0388166000908152600d6020908152604080832060048082018054909601909555600501805460ff19169055600780546001908101808355808652600c9094528285209384559554600a805490910181559290950188905560095485548452818420600301556008548554845281842060020155905493548252902001556112ab866105f1565b505050600160a060020a0387166000908152600d6020908152604091829020805460028201546003830154600484015460059094015486519384529483019190915281850152606081019190915260ff9091161515608082015290517f5f057ec20d21163364ee2cbb5a496ae1bf2c2a90a74c9e57e39bcaeda3a0af5592509081900360a00190a16007546000908152600c60209081526040918290208054600182015460028301546003840154600490940154865193845294830191909152818501526060810191909152608081019190915290517f6e5ae1dd4cb49e2bc8318aabfdffeca3591a25783ce1ebc69256b52de25f1d9f9181900360a00190a1505050505050565b60065481565b828054600181600116156101000203166002900490600052602060002090601f016020900481019282601f106113fa57805160ff1916838001178555611427565b82800160010185558215611427579182015b8281111561142757825182559160200191906001019061140c565b50611433929150611437565b5090565b61145191905b80821115611433576000815560010161143d565b9056fea165627a7a723058202bc00dc9a800b4863c25494775c9e9cc3d9060406dc1f857fabc10e05ef28cb70029",
  "source": "pragma solidity >=0.4.21 <0.6.0;\r\n\r\ncontract Powerpool {\r\n    uint256 public highPrice = 381;\r\n    uint256 public lowPrice = 168;\r\n    uint256 public _carbonPrefix = 386;\r\n    uint256 public billingEndTime;\r\n    // bool billingEnded;\r\n    uint256 public _buy;\r\n    uint256 public _sell;\r\n    uint256 public _carbon;\r\n    uint256 public allcount = 0;\r\n    uint256 public Qbuy;\r\n    uint256 public Qsell;\r\n    uint256 public allcarbon;\r\n    struct Txn {\r\n        uint256 count;\r\n        uint256 time;\r\n        uint256 buy;\r\n        uint256 sell;\r\n        uint256 carbon;\r\n        bool paid;\r\n    }\r\n    struct AllTxn {\r\n        uint256 count;\r\n        uint256 price;\r\n        uint256 qbuy;\r\n        uint256 qsell;\r\n        uint256 carbon;\r\n    }\r\n    struct Bill {\r\n        string status;\r\n        uint256 amount;\r\n        uint256 carbon;\r\n        bool paid;\r\n    }\r\n\r\n    mapping(address => Bill) public bills;\r\n    mapping(uint256 => AllTxn) public all;\r\n    mapping(address => Txn) public txns;\r\n    event Txnrecored(\r\n        uint256 count,\r\n        uint256 buy,\r\n        uint256 sell,\r\n        uint256 carbon,\r\n        bool paid\r\n    );\r\n    event All(\r\n        uint256 count,\r\n        uint256 quant,\r\n        uint256 buy,\r\n        uint256 sell,\r\n        uint256 carbon\r\n    );\r\n\r\n    constructor() public {\r\n        uint256 _billingTime = 10000;\r\n        billingEndTime = block.timestamp + _billingTime;\r\n    }\r\n\r\n    function setTxn(\r\n        address _user,\r\n        uint256 _acQuant,\r\n        uint256 _clQuant,\r\n        uint256 _clPrice,\r\n        string memory _status,\r\n        uint256 _pvQuant\r\n    ) public {\r\n        // require(now <= billingEndTime);\r\n        require(txns[_user].count < 3, \"The txncount should be < 3\");\r\n        // require(_user == msg.sender,\"_user must be sender\");\r\n        require(\r\n            _acQuant >= 0 && _clQuant >= 0 && _clPrice >= 0 && _pvQuant >= 0,\r\n            \"_acQuant >= 0 && _clQuant >= 0 && _clPrice >= 0 && _pvQuant >= 0\"\r\n        );\r\n        txns[_user].count++;\r\n        if (\r\n            keccak256(abi.encodePacked(_status)) ==\r\n            keccak256(abi.encodePacked(\"Bid\"))\r\n        ) {\r\n            if (_acQuant > _clQuant) {\r\n                _buy =\r\n                    (_clPrice * _clQuant) +\r\n                    (highPrice * (_acQuant - _clQuant));\r\n            } else {\r\n                _buy = _clPrice * _acQuant;\r\n            }\r\n            txns[_user].buy = txns[_user].buy + _buy;\r\n            Qbuy = Qbuy + _acQuant;\r\n        }\r\n        if (\r\n            keccak256(abi.encodePacked(_status)) ==\r\n            keccak256(abi.encodePacked(\"Offer\"))\r\n        ) {\r\n            if (_acQuant > _clQuant) {\r\n                _sell =\r\n                    (_clPrice * _clQuant) +\r\n                    (lowPrice * (_acQuant - _clQuant));\r\n            } else {\r\n                _sell = _clPrice * _acQuant;\r\n            }\r\n            txns[_user].sell = txns[_user].sell + _sell;\r\n            Qsell = Qsell + _acQuant;\r\n        }\r\n        if (\r\n            keccak256(abi.encodePacked(_status)) ==\r\n            keccak256(abi.encodePacked(\"Offer\"))\r\n        ) {\r\n            _carbon = _pvQuant * _carbonPrefix;\r\n        } else {\r\n            _carbon = 0;\r\n        }\r\n        txns[_user].carbon = txns[_user].carbon + _carbon;\r\n        txns[_user].paid = false;\r\n        allcount++;\r\n        all[allcount].count = allcount;\r\n        allcarbon = allcarbon + _carbon;\r\n        all[allcount].price = _clPrice;\r\n        all[allcount].qsell = Qsell;\r\n        all[allcount].qbuy = Qbuy;\r\n        all[allcount].carbon = allcarbon;\r\n        getBill(_user);\r\n        emit Txnrecored(\r\n            txns[_user].count,\r\n            txns[_user].buy,\r\n            txns[_user].sell,\r\n            txns[_user].carbon,\r\n            txns[_user].paid\r\n        );\r\n        emit All(\r\n            all[allcount].count,\r\n            all[allcount].price,\r\n            all[allcount].qbuy,\r\n            all[allcount].qsell,\r\n            all[allcount].carbon\r\n        );\r\n    }\r\n\r\n    function getBill(address _user)\r\n        public\r\n        returns (\r\n            string memory,\r\n            uint256,\r\n            uint256,\r\n            bool\r\n        )\r\n    {\r\n        // require(now > billingEndTime);\r\n        require(\r\n            txns[_user].sell >= 0 && txns[_user].buy >= 0,\r\n            \"The sell or buy records should be >= 0\"\r\n        );\r\n        uint256 _amount;\r\n        string memory _billstatus;\r\n        if (txns[_user].buy > txns[_user].sell) {\r\n            _amount = txns[_user].buy - txns[_user].sell;\r\n            _billstatus = \"BUY\";\r\n        } else if (txns[_user].sell > txns[_user].buy) {\r\n            _amount = txns[_user].sell - txns[_user].buy;\r\n            _billstatus = \"SELL\";\r\n        }\r\n\r\n        bills[_user].amount = _amount;\r\n        bills[_user].status = _billstatus;\r\n        bills[_user].carbon = txns[_user].carbon;\r\n        bills[_user].paid = false;\r\n        txns[_user].paid = true;\r\n        return (\r\n            bills[_user].status,\r\n            bills[_user].amount,\r\n            bills[_user].carbon,\r\n            bills[_user].paid\r\n        );\r\n    }\r\n\r\n    function payBills(address payable _user, address payable market)\r\n        public\r\n        payable\r\n    {\r\n        string memory Status = bills[_user].status;\r\n        uint256 amount = bills[_user].amount;\r\n        require(txns[_user].count >= 1, \"The txnrecord should be >= 1\");\r\n        require(amount >= 0, \"The bill should >0\");\r\n        require(\r\n            txns[_user].paid = true,\r\n            \"The records should be timeout (true) \"\r\n        );\r\n\r\n        if (\r\n            keccak256(abi.encodePacked(Status)) ==\r\n            keccak256(abi.encodePacked(\"BUY\"))\r\n        ) {\r\n            require(_user == msg.sender, \"user should be sender\");\r\n            require(amount <= msg.value, \"amount should == msg.value\");\r\n            uint256 payment = msg.value;\r\n            market.transfer(payment);\r\n        } else {\r\n            require(market == msg.sender, \"market should be sender\");\r\n            require(amount <= msg.value, \"amount should == msg.value\");\r\n            uint256 payment = msg.value;\r\n            _user.transfer(payment);\r\n        }\r\n        bills[_user].paid = true;\r\n        bills[_user].amount = 0;\r\n        bills[_user].status = \"\";\r\n        bills[_user].carbon = 0;\r\n        txns[_user].count = 0;\r\n        txns[_user].time = 0;\r\n        txns[_user].buy = 0;\r\n        txns[_user].sell = 0;\r\n        txns[_user].carbon = 0;\r\n    }\r\n}\r\n",
  "sourcePath": "D:/powerpool_kovan - Copy/contracts/Powerpool.sol",
  "compiler": {
    "name": "solc",
    "version": "0.5.0+commit.1d4f565a.Emscripten.clang"
  },
  "schemaVersion": "3.0.6",
  "updatedAt": "2020-11-04T23:55:50.988Z",
  "devdoc": {
    "methods": {}
  },
  "userdoc": {
    "methods": {}
  }
}